:10000000E2C00000FCC00000FAC00000F8C0000020
:10001000F6C00000F4C00000F2C00000F0C0000014
:10002000EEC00000ECC00000EAC0000080C6000086
:1000300025C70000E4C00000E2C00000E0C00000EE
:10004000DEC00000DCC00000DAC00000D8C0000044
:10005000D6C00000D4C00000D2C0000097C300008A
:10006000CEC00000CCC00000CAC00000C8C0000064
:10007000C6C0000018036C007500630061007300C7
:10008000610062007200650067007500180341009E
:1000900072006400750069006E006F00200055005A
:1000A0006E006F0024036B00750077006100740020
:1000B0006100790040006E006900660074007900FC
:1000C0002E0063006F006D00320341007200640077
:1000D000750069006E006F0020002800770077002F
:1000E00077002E00610072006400750069006E00E8
:1000F0006F002E0063006300290004030904090255
:100100006500020100C03209040000000101000086
:100110000924010001090001010904010002010391
:10012000000007240100014100062402010100062D
:100130002402020200092403010301020100092430
:100140000302040101010009050102400000000052
:100150000525010101090582024000000000052576
:1001600001010309023E00020100C032090400003F
:1001700001020201000524000110042402060524E6
:10018000060001070582030800FF09040100020AB6
:10019000000000070504024000010705830240003B
:1001A0000112011001000000084123DB880000015A
:1001B00002000112011001020000084123010001A8
:1001C000000102DC010011241FBECFEFD2E0DEBF30
:1001D000CDBF11E0A0E0B1E0E6E6F5E102C0059098
:1001E0000D92A233B107D9F722E0A2E3B1E001C03A
:1001F0001D92A238B207E1F728D20C94A70A00CFCB
:100200009C01DC01AE57BF4FED91FC91119781919C
:10021000A90140585F4FE417F50761F0ED93FC9397
:100220004FB7F894F901EC57FF4F908191509083AC
:100230004FBF08952D933C93F3CFCF93DF9320913D
:100240005701FC01860F3081932F9E70B1F0432F30
:100250004F70EF01219691E03B7054EF540F69917C
:10026000A22FB0E0AA5CBE4F6C932F5F2F7191302C
:1002700051F4453011F04F3061F4982F9E1B9530AA
:1002800060F03496E0CF923021F43230B1F3523046
:10029000A0F39F5F943019F7F0CF20935701DF91BF
:1002A000CF910895982F80913501882301F1809195
:1002B000340121E0280FE82FF0E0E85AFE4F2093A8
:1002C00034019083973F49F48C5F809358011092DA
:1002D00035011092330181E00895243011F080E05F
:1002E00008952093580181E0809334010895983F48
:1002F00050F08FE0809358019093590110925A0169
:1003000010925B01E8CF97FF0DC0903F49F421E0C8
:10031000209335019093590192E090933401089510
:100320001092330180913301811110C0392F329521
:100330003F70232F27702F5F220F209333013093BC
:10034000600190936101109263010895E82FF0E03D
:10035000EF5DFE4F4081282F217030E0205A3E4F44
:10036000F9019283842F8F708093330147FFB7CFB9
:1003700084E0E0E6F1E0A8E5B1E001900D928A9515
:10038000E1F7A9CFCF93DF9300D000D0CDB7DEB790
:10039000789413E088E2F82E02E08091C80087FF8D
:1003A0000BC0E09068018091CE007CDF8E298093A5
:1003B00068015D981093690180916801882361F05C
:1003C00068E571E081E091E00E942B0A81E091E014
:1003D0000E944E0A10926801BE016F5F7F4F81E05C
:1003E00091E00E94610A811143C08091C80085FF9D
:1003F00015C0E0915601809157018E1779F081E088
:100400008E0F80935601F0E0EA5CFE4F808180936E
:10041000CE00809156018F7180935601A89B19C020
:10042000A89A80916901882341F0809169018150E7
:1004300080936901811101C05D9A80916A018823CE
:1004400041F080916A01815080936A01811101C05D
:100450005C9A8DD680913201813009F09ECF8091D7
:1004600000019FEF980F813059F09093000195CFD4
:1004700064E0CE010196E1DE5C9810936A01ACCF96
:10048000F092000185B1802785B987CF2FB7F89406
:1004900081EF91E0909372028093710290937402C5
:1004A000809373022FBF2FB7F8948CE691E090935E
:1004B000ED018093EC019093EF018093EE012FBF4B
:1004C000789401EF11E0D3E09FB7F8948091750222
:1004D0009FBF803809F18AE091E062D797FD1CC088
:1004E000E0917102F091720280838091710290918B
:1004F00072029C012F5F3F4F8057924009F44FC01A
:1005000030937202209371029FB7F8948091750224
:100510008F5F809375029FBF8FB7F894C091F001F1
:100520008FBFA89902C0C13610F1A89A8091F0013E
:10053000882319F05D98D0936901C150A8F5809186
:100540006901882341F0809169018150809369019C
:10055000811101C05D9A80916A01882341F08091E8
:100560006A01815080936A01811101C05C9A9FB732
:10057000F894809175029FBF882361F081EF91E02C
:100580003FDE9091C80095FFFCCF8093CE005C9831
:10059000D0936A018AE091E0F4D6E9D595CF109323
:1005A000720200937102B0CF8CE691E029DE682FD1
:1005B0008AE091E098D6C1CF84B7877F84BF0FB619
:1005C000F894A895809160008861809360001092F3
:1005D00060000FBE82E084B98CE085B91A9922C010
:1005E0001092200187E690E09093CD008093CC009C
:1005F00086E08093CA001092C80088E18093C90009
:10060000539A5A9A84E085BD87D38AB180638AB9A8
:100610008BB180638BB980912001811102C05F9AF8
:10062000579A089581E0809320011B990AC0809316
:1006300032011092CC0088E18093C9008EE085B928
:10064000E1CF8FE18093CC00F6CFB6DF809120011F
:10065000813009F497DE1ADF089508958091200112
:10066000813019F481E091E0C5C68AE091E0F7C5D8
:1006700080912001811103C08AE091E08AC508952C
:100680008F929F92AF92BF92FF920F931F93CF933F
:10069000DF9300D000D00F92CDB7DEB78C01DC0124
:1006A00054968C9190E3F92E813029F020E2F22EBD
:1006B000823009F0F12CF8018389823011F46894BA
:1006C000F3F8D80155968C91873009F453C08830DF
:1006D00009F453C0863011F46894F1F81092C900FF
:1006E0001092C8001092CA00F8012785308941890C
:1006F00052892115F1EE3F074105510509F441C02A
:1007000049015A01B694A79497948794D501C401DE
:1007100080589B47A14EBF4F89839A83AB83BC838C
:10072000BC01CD01ECD6215031093093CD0020938E
:10073000CC00F092CA00F80187859089A189B2891E
:100740008115914EA105B105F9F082E08093C800B2
:1007500088E98093C9000F900F900F900F900F9031
:10076000DF91CF911F910F91FF90BF90AF909F901D
:100770008F9008956894F2F8B1CFBF2DB660FB2E2C
:10078000ADCF20E130E0D1CF80E0E0CF1F921FB6A7
:100790001F9211242F938F939F93EF93FF93809138
:1007A0002001811120C08091CE009EB39430D9F4F5
:1007B000E091EC01F091ED018083E091EC01F0918A
:1007C000ED01CF01019621E0EB3EF207A9F09093F5
:1007D000ED018093EC019FB7F8948091F0018F5F59
:1007E0008093F0019FBFFF91EF919F918F912F9187
:1007F0001F901FBE1F9018958CE691E09283818315
:10080000EACFFC01858580FF02C05F9808955F9A5A
:1008100008959C01DA01832F99278230910591F088
:1008200083309105C9F0019709F05AC080912001E9
:10083000813009F44BC082E190E023EB31E02D934D
:100840003C93089580912001813009F444C08EE3E7
:1008500090E023E631E0F3CFC9019927213071F010
:1008600082309105F9F0892B09F03AC0EAEFF0E007
:10087000E4918E2F90E02AEF30E0E1CF80912001CB
:10088000813041F4E4EAF0E0E4918E2F90E024EA34
:1008900030E0D5CFE8ECF0E0E4918E2F90E028EC4A
:1008A00030E0CDCF80912001813041F4E4E7F0E0E9
:1008B000E4918E2F90E024E730E0C1CFECE8F0E047
:1008C000E4918E2F90E02CE830E0B9CF82E190E007
:1008D00021EA31E0B4CF85E690E02EEF30E0AFCFF3
:1008E00090E080E030E020E0AACFAC0128E030E0EA
:1008F00080E02417350718F08295807F08958F5F78
:10090000220F331FF6CF8093E900EBEEF0E08081F9
:1009100081608083EDEEF0E010826093EC00408314
:100920008091EE00881F8827881F08951092F40098
:1009300080E08093E9001092F0001092E80010929D
:10094000ED009091EB009E7F9093EB008F5F8530E0
:1009500081F7089580917A0287FF11C08091E800A5
:1009600082FF06C08091E8008B778093E80003C087
:100970008EB38111F3CF08958EB38823E1F3809174
:10098000E80080FFF9CF8091E8008E77EECF95E602
:100990002091EC00822F817020FF06C08091E8003A
:1009A00080FF06C080E008952091E80022FD1CC071
:1009B0008EB38823A1F08EB3853099F08091EB003F
:1009C00085FD11C08091E10082FFE2CF8091E100BE
:1009D0008B7F8093E1009150D9F684E0089582E006
:1009E000089583E0089581E00895DF92EF92FF92E9
:1009F0000F931F93CF93DF93D82FD92E8B017A01BA
:100A0000C6DFC82F8823C1F08C2FDF91CF911F91B3
:100A10000F91FF90EF90DF900895F70109958130D5
:100A2000D1F4C5E0F1CFED2FFD2D81918093F10040
:100A300001501109DE2FDF2E0115110529F38091D8
:100A4000E80085FDF0CF8091E8008E778093E80084
:100A5000E114F10411F79BDF882371F3C82FD4CF81
:100A6000DF92EF92FF920F931F93CF93DF93D82FD4
:100A7000D92E8B017A018BDFC82F8823C1F08C2FF0
:100A8000DF91CF911F910F91FF90EF90DF9008952C
:100A9000F70109958130D1F4C5E0F1CFED2FFD2D9F
:100AA0008091F100819301501109DE2FDF2E011595
:100AB000110529F38091E80085FDF0CF8091E800D1
:100AC0008B778093E800E114F10411F760DF88234D
:100AD00071F3C82FD4CF9B014091800250918102C5
:100AE0004617570798F0672B29F44091E8004E7796
:100AF0004093E80050E02115310551F4511108C030
:100B00008091E80082FF30C080E008959A01F2CF22
:100B10004091E80043FD30C04091E80042FDF0CF35
:100B20004EB3442359F14EB3453021F14091E800D2
:100B300040FFE1CF4091F2002115310511F048301E
:100B400050F051E0483009F050E04091E8004E7715
:100B50004093E800D0CFFC0181918093F1002150B7
:100B600031094F5FCF01E8CF8EB3882339F08EB3C0
:100B7000853031F683E0089581E0089582E008959C
:100B80009B0140918002509181024617570798F0CF
:100B9000672B29F44091E8004E774093E80050E03D
:100BA0002115310551F4511108C08091E80082FFF0
:100BB00031C080E008959A01F2CF4091E80043FDF2
:100BC00031C04091E80042FDF0CF4EB3442361F1C3
:100BD0004EB3453029F14091E80040FFE1CF40910C
:100BE000F200FC01CF012115310511F0483050F021
:100BF00051E0483009F050E04091E8004E774093D2
:100C0000E800CECF84918093F100215031094F5FED
:100C10003196E8CF8EB3882339F08EB3853029F62C
:100C200083E0089581E0089582E008959B01672B99
:100C300029F44091E8004B774093E80021153105F5
:100C400031F48091E80080FF1DC080E0089540915C
:100C5000E80043FD1FC04EB34423F1F04EB34530CE
:100C6000B9F04091E80042FFE9CF4091F2004423FF
:100C700001F3FC018091F100819321503109CF01F2
:100C8000A1F7D7CF8EB3882339F08EB38530C9F65C
:100C900083E0089581E0089582E0089542D044D031
:100CA0001EBA10927802109277021092760284E0B7
:100CB00089BD89B5826089BD09B400FEFDCF8091F0
:100CC000D800982F9F779093D80080688093D800A1
:100CD000809163008E7F809363008091D8008F7D28
:100CE0008093D8008091E0008E7F8093E000809117
:100CF000E1008E7F8093E1008091E200816080932B
:100D0000E2008091E100877F8093E1008091E20022
:100D100088608093E2000895C1DF81E080937902CA
:100D200008951092E20008951092E10008951F9234
:100D30000F920FB60F9211242F933F934F935F930F
:100D40006F937F938F939F93AF93BF93EF93FF9393
:100D50008091E10080FF1BC08091E20080FF17C0FE
:100D60008091E1008E7F8093E1008091E2008E7F90
:100D70008093E2008091E20080618093E2008091A4
:100D8000D80080628093D80019BC1EBA66DC8091BE
:100D9000E10084FF27C08091E20084FF23C084E04B
:100DA00089BD89B5826089BD09B400FEFDCF8091FF
:100DB000D8008F7D8093D8008091E1008F7E809352
:100DC000E1008091E2008F7E8093E2008091E2005A
:100DD00081608093E2008091780281114DC081E0B2
:100DE0008EBB3ADC8091E10083FF27C08091E20056
:100DF00083FF23C08091E100877F8093E10082E040
:100E00008EBB109278028091E1008E7F8093E1008A
:100E10008091E2008E7F8093E2008091E200806109
:100E20008093E20083DD42E060E080E06CDD809151
:100E3000F00088608093F00099D18091E10082FFFA
:100E40000AC08091E20082FF06C08091E1008B7FA2
:100E50008093E1008BD1FF91EF91BF91AF919F9172
:100E60008F917F916F915F914F913F912F910F9053
:100E70000FBE0F901F90189584E0B2CF1F920F9273
:100E80000FB60F921124FF920F931F932F933F934E
:100E90004F935F936F937F938F939F93AF93BF9382
:100EA000CF93DF93EF93FF93C9EED0E088818770F3
:100EB000F82E188200EF10E0F8018081877F808390
:100EC00078941DD0F8941882F8018081886080831E
:100ED000F882FF91EF91DF91CF91BF91AF919F91F8
:100EE0008F917F916F915F914F913F912F911F91C2
:100EF0000F91FF900F900FBE0F901F9018951F93AA
:100F0000CF93DF93CDB7DEB7AA970FB6F894DEBFC5
:100F10000FBECDBF8AE792E0FC0101962091F1005F
:100F2000208322E082389207B9F780917A0290916B
:100F30007B029A3008F004C1E92FF0E0E755F54F45
:100F400000C3803881F0823809F0FAC080917E02B7
:100F500087708093E9008091EB0085FB882780F9FA
:100F60001092E90006C0809176029091770291116B
:100F700082609091E800977F9093E8008093F10061
:100F80001092F1008091E8008E77ECC0882309F47C
:100F9000D9C0823009F0D4C080917C028111DDC0BB
:100FA00080917E02877009F43CC08093E900209113
:100FB000EB0020FF36C0933031F48091EB0080626B
:100FC0008093EB00CAC09091EB0090619093EB008E
:100FD00021E030E001C0220F8A95EAF72093EA0071
:100FE0001092EA008091EB008860EACF8111A8C0DE
:100FF00010917C028091E800877F8093E800AADC52
:101000008091E80080FF0AC0812F8F7792E009F07D
:1010100093E09EBB80688093E30003C08EB3811190
:10102000EFCF8091E80083FF0AC08091EB008062DF
:101030008093EB008091E800877F8093E800AA9678
:101040000FB6F894DEBF0FBECDBFDF91CF911F91D9
:1010500008958058823008F073C080917C0290918E
:101060007D028C3D23E0920799F583E08A838AE232
:1010700089834FB7F894DE01139620E03EE051E2F9
:10108000E32FF0E050935700E49120FF03C0E29576
:10109000EF703F5FEF7080E38E0F8A3310F087E3CD
:1010A0008E0F90E08D939D932F5F243149F74FBFB2
:1010B0008091E800877F8093E8006AE270E0CE01CB
:1010C000019609DD8091E8008B778093E800A9CF35
:1010D000AE014F5F5F4F60917E029BDBBC01892BAD
:1010E00009F49FCF8091E800877F8093E800898191
:1010F0009A8146DDE7CF803819F58091E800877F37
:101100008093E800809178028093F1003BCF8111B9
:1011100017C090917C02923008F083CF8091E80054
:10112000877F8093E8009093780214DC80917802A6
:10113000811104C083E08EBB91DA73CF84E0FBCFD2
:1011400097DA6FCF80917C02813009F06ACF81E01D
:10115000933009F080E0809377021092E90080914B
:10116000E800877F8093E800F5DB5BCF0895CF939D
:101170008EB3882359F0C091E900C7701092E9003E
:101180008091E80083FDBBDEC093E900CF91089514
:101190000895CF93DF93EC018091E80083FF12C0A4
:1011A000288180917E0290917F022817190651F4C0
:1011B00080917B02823209F440C038F4803249F1D8
:1011C000813299F0DF91CF9108958332D9F78091E0
:1011D0007A028132B9F78091E800877F8093E80036
:1011E00060917C02CE01D4DF37C080917A02813ACF
:1011F00049F78091E800877F8093E80067E070E01E
:10120000CE010F9668DC8091E8008B778093E80030
:10121000D9CF80917A028132A9F68091E800877F48
:101220008093E80067E070E0CE010F96FFDCCE010E
:1012300027DA8091E8008E77E9CF80917A028132B7
:1012400009F0C0CF8091E800877F8093E80080910B
:101250007C028D87CE01D5DADF91CF917BCB0F93C6
:101260001F93CF93DF93EC01FC013D9689E0DF01F2
:101270001D928A95E9F78A819B812C8110E02111CA
:1012800014E0098132DB412F482B426061E8802F56
:101290003ADB882311F18E819F81288510E021118E
:1012A00014E00D8122DB412F482B426060E8802F43
:1012B0002ADB882391F08A859B852C8510E02111FB
:1012C00014E0C98512DB412F482B426061EC8C2F62
:1012D000DF91CF911F910F9116CB80E0DF91CF91DD
:1012E0001F910F910895CF93FC01C62F8EB38430C8
:1012F000E9F487859089A189B289892B8A2B8B2B68
:10130000A9F081818093E9008091E80085FF05C004
:10131000C093F10080E0CF9108958091E8008E772E
:101320008093E80034DB882399F3F5CF82E0F3CF94
:10133000FC018EB3843019F587859089A189B28923
:10134000892B8A2B8B2BD9F081818093E9008091A6
:10135000F200811102C080E008959091E800809130
:10136000E8008E778093E80095FDF5CF10DB8111C2
:1013700007C09091E8009E779093E800089582E07E
:101380000895FC018EB3843051F487859089A1893A
:10139000B289892B8A2B8B2B11F0CF01C9CF0895ED
:1013A000FC018EB3843019F08FEF9FEF089587858D
:1013B0009089A189B289892B8A2B8B2BA9F38581EE
:1013C0008093E9008091E80082FFEECF8091F200E7
:1013D000882369F08091F10090E02091F2002111C2
:1013E00005C02091E8002B772093E80008958FEF47
:1013F0009FEFF3CF0F931F93CF93DF93EC010981FE
:10140000011115C01D8181E0112301F18E819F81A1
:101410002885C0E02111C4E068DA4C2F482B4260D7
:1014200060E8812FDF91CF911F910F916CCA8A8163
:101430009B812C8110E0211114E057DA412F482BB9
:10144000426061E8802F5FDA8111DCCFDF91CF91BC
:101450001F910F910895FC01CB012EB32430E1F4CC
:1014600021812093E9002091E80025FD02C080E061
:10147000089550E040E064E070E0B7DA81110DC0FB
:101480009091E800892F807295FDF1CF9091E8004E
:101490009E779093E800089582E00895FC018EB352
:1014A000843069F481818093E9008091F20088237F
:1014B00039F08091E8008E778093E80068CA82E076
:1014C0000895FC01CB012EB3243011F080E0089583
:1014D00025812093E9002091E80025FFF7CF50E017
:1014E00040E064E070E0BCDA8091E80085FD05C072
:1014F0008091E8008B778093E80081E00895A1E275
:101500001A2EAA1BBB1BFD010DC0AA1FBB1FEE1F7D
:10151000FF1FA217B307E407F50720F0A21BB30BC8
:10152000E40BF50B661F771F881F991F1A9469F744
:1015300060957095809590959B01AC01BD01CF01A0
:101540000895EE0FFF1F0590F491E02D0994F89493
:10155000FFCFA107C607A008C607A008F6072908FD
:06156000A0087B088708CB
:101566002801024000000140000000034000000482
:10157600400000020800000000000000000000001B
:1015860001000003820584078609888A008C000F03
:021596008E00C5
:00000001FF
